:100000000C9462020C94C7060C94A0060C948A020D
:100010000C948A020C948A020C948A020C948A0230
:100020000C948A020C948A020C948A020C9438086C
:100030000C948A020C941B080C948A020C948A0279
:100040000C9456060C948A020C9424060C94FE051B
:100050000C948A020C948A020C948A020C948A02F0
:100060000C948A020C948A020000803F2C9A7C3FF8
:10007000FD9A7A3FFCED783FCE6E773F5F0E763F7C
:1000800094C4743F718C733F9B62723FB244713F62
:10009000EF30703FF6256F3FB3226E3F47266D3F2E
:1000A000FB2F6C3F353F6B3F74536A3F496C693F90
:1000B0005689683F45AA673FCECE663FB0F6653F9A
:1000C000B221653F9F4F643F4980633F86B3623FE3
:1000D00030E9613F2421613F425B603F6E975F3FA3
:1000E0008BD55E3F82155E3F3B575D3FA19A5C3FDB
:1000F000A0DF5B3F25265B3F1F6E5A3F7FB7593F0E
:100100003302593F2F4E583F659B573FC8E9563F32
:100110004B39563FE489553F87DB543F2B2E543FE4
:10012000C581533F4CD6523FB82B523FFF81513FC0
:100130001BD9503F0231503FAE894F3F17E34E3F2E
:10014000373D4E3F07984D3F81F34C3F9F4F4C3F0B
:100150005BAC4B3FAF094B3F95674A3F0AC6493FEF
:100160000725493F8784483F86E4473F0045473F8E
:10017000EFA5463F5007463F1E69453F55CB443FDC
:10018000F22D443FEF90433F4AF4423FFF57423F36
:100190000ABC413F6720413F1485403F0DEA3F3F85
:1001A0004F4F3F3FD5B43E3F9E1A3E3FA7803D3F55
:1001B000EBE63C3F684D3C3F1CB43B3F031B3B3FE1
:1001C0001B823A3F61E9393FD150393F6AB8383F25
:1001D0002920383F0A88373F0DF0363F2D58363FEB
:1001E00069C0353FBD28353F2891343FA7F9333FDB
:1001F0003862333FD8CA323F8533323F3C9C313F6F
:10020000FB04313FC06D303F89D62F3F523F2F3F17
:100210001BA82E3FE0102E3F9F792D3F57E22C3F29
:10022000044B2C3FA5B32B3F371C2B3FB8842A3FF0
:1002300025ED293F7D55293FBDBD283FE425283FB9
:10024000EE8D273FD9F5263FA35D263F4AC5253FC2
:10025000CC2C253F2694243F56FB233F5962233F55
:100260002EC9223FD12F223F4196213F7BFC203FC8
:100270007D62203F44C81F3FCD2D1F3F17931E3F77
:100280001FF81D3FE15C1D3F5DC11C3F8E251C3FDB
:1002900073891B3F08ED1A3F4C501A3F3AB3193F80
:1002A000D115193F0E78183FEED9173F6E3B173F17
:1002B0008B9C163F41FD153F8F5D153F70BD143F70
:1002C000E21C143FE27B133F6BDA123F7C38123F93
:1002D0001096113F24F3103FB44F103FBDAB0F3FBA
:1002E0003B070F3F2B620E3F88BC0D3F4E160D3F64
:1002F0007B6F0C3F08C80B3FF21F0B3F35770A3F5F
:10030000CDCD093FB423093FE678083F5ECD073FD6
:100310001821073F0E74063F3BC6053F9917053F5E
:100320002368043FD4B7033FA506033F9054023F20
:1003300090A1013F9DED003FB138003F8B05FF3E8E
:10034000A697FD3EA527FC3E77B5FA3E0F41F93E44
:1003500059CAF73E4851F63EC8D5F43EC857F33E59
:1003600034D7F13EF853F03E02CEEE3E3A45ED3E34
:100370008BB9EB3EDE2AEA3E1A99E83E2704E73EB7
:10038000EA6BE53E48D0E33E2331E23E5E8EE03E3E
:10039000D9E7DE3E733DDD3E088FDB3E75DCD93E9E
:1003A0009325D83E386AD63E3AAAD43E6CE5D23E72
:1003B0009D1BD13E9B4CCF3E3178CD3E249ECB3E03
:1003C00037BEC93E2BD8C73EBAEBC53E9BF8C33EED
:1003D0007EFEC13E0FFDBF3EF2F3BD3EC7E2BB3E17
:1003E00022C9B93E93A6B73E9D7AB53EBA44B33E04
:1003F0005704B13ED4B8AE3E8261AC3EA0FDA93EEA
:10040000598CA73EC10CA53ED27DA23E66DE9F3E22
:10041000342D9D3EC9689A3E7E8F973E729F943ED2
:100420007896913E0F728E3E442F8B3E9CCA873E3B
:10043000F13F843E398A803E8B46793EB606713E56
:100440003141683E26DC5E3EB1B4543EE399493EFC
:100450008E433D3EA63F2F3E42C71E3E21440A3EEC
:1004600014A4DA3D00000000000000002400270072
:100470002A0000000000250028002B0000000000DA
:1004800023002600290004040404040404040202D6
:100490000202020203030303030301020408102003
:1004A000408001020408102001020408102000000E
:1004B0000008000201000003040700000000000023
:1004C0000000BA0811241FBECFEFD8E0DEBFCDBFB9
:1004D00011E0A0E0B1E0EEEFF5E102C005900D9271
:1004E000A634B107D9F721E0A6E4B1E001C01D921E
:1004F000AC3EB207E1F712E0C2E6D2E004C02197B9
:10050000FE010E94F70AC136D107C9F70E94E70829
:100510000C94FD0A0C940000AF92BF92CF92DF9230
:10052000EF92FF920F931F93CF93DF936C017B01A8
:100530008B01040F151FEB015E01AE18BF08C01739
:10054000D10759F06991D601ED91FC910190F081AC
:10055000E02DC6010995892B79F7C501DF91CF916F
:100560001F910F91FF90EF90DF90CF90BF90AF90D1
:100570000895FC01538D448D252F30E0842F90E0A9
:10058000821B930B541710F0CF960895019708958E
:10059000FC01918D828D981761F0A28DAE0FBF2F57
:1005A000B11D5D968C91928D9F5F9F73928F90E0AD
:1005B00008958FEF9FEF0895FC01918D828D98171C
:1005C00031F0828DE80FF11D858D90E008958FEF59
:1005D0009FEF0895FC01918D228D892F90E0805C22
:1005E0009F4F821B91098F73992708958FE491E0A3
:1005F0000E94EA0221E0892B09F420E0822F08956D
:1006000080E090E0892B29F00E94F60281110C9481
:1006100000000895CF92DF92EF92FF921F93CF9345
:10062000DF93EC016A017B01122FE889F98982E0EE
:100630008083C11481EED806E104F104A1F060E0EA
:1006400079E08DE390E0A70196010E94D50A215040
:100650003109410951095695479537952795211537
:1006600080E1380798F0E889F989108260E874E839
:100670008EE190E0A70196010E94D50A2150310930
:10068000410951095695479537952795EC85FD8584
:100690003083EE85FF852083188EEC89FD891083D9
:1006A000EA89FB89808180618083EA89FB89808176
:1006B00088608083EA89FB89808180688083EA89F9
:1006C000FB8980818F7D8083DF91CF911F91FF9087
:1006D000EF90DF90CF900895FC01A48DA80FB92F63
:1006E000B11DA35ABF4F2C91848D90E001968F735A
:1006F0009927848FA689B7892C93A089B1898C9179
:10070000837080648C93938D848D981306C00288C7
:10071000F389E02D80818F7D80830895EF92FF9291
:100720000F931F93CF93DF93EC0181E0888F9B8D14
:100730008C8D98131AC0E889F989808185FF15C0CE
:100740009FB7F894EE89FF896083E889F9898081F1
:100750008370806480839FBF81E090E0DF91CF91C0
:100760001F910F91FF90EF900895F62E0B8D10E0E2
:100770000F5F1F4F0F731127E02E8C8D8E110CC051
:100780000FB607FCFACFE889F989808185FFF5CF9C
:10079000CE010E946C03F1CFEB8DEC0FFD2FF11D0C
:1007A000E35AFF4FF0829FB7F8940B8FEA89FB89D9
:1007B00080818062CFCFCF93DF93EC01888D882337
:1007C000B9F0AA89BB89E889F9898C9185FD03C0B4
:1007D000808186FD0DC00FB607FCF7CF8C9185FF99
:1007E000F2CF808185FFEDCFCE010E946C03E9CF6F
:1007F000DF91CF910895833081F028F4813099F012
:100800008230A9F008958730A9F08830C9F084308B
:10081000B1F4809180008F7D03C0809180008F773C
:1008200080938000089584B58F7784BD089584B542
:100830008F7DFBCF8091B0008F778093B0000895BB
:100840008091B0008F7DF9CFCF93DF93282F30E0D8
:10085000F901E255FB4F8491F901E656FB4FD49123
:10086000F901EA57FB4FC491CC23A1F081110E94FA
:10087000FB03EC2FF0E0EE0FFF1FE458FB4FA591B8
:10088000B491EC91ED2381E090E009F480E0DF91F8
:10089000CF91089580E090E0FACF1F93CF93DF933C
:1008A000282F30E0F901E255FB4F8491F901E6561B
:1008B000FB4FD491F901EA57FB4FC491CC23A9F027
:1008C000162F81110E94FB03EC2FF0E0EE0FFF1FAB
:1008D000EE58FB4FA591B4918FB7F894EC9111119C
:1008E00008C0D095DE23DC938FBFDF91CF911F919D
:1008F0000895DE2BF8CFCF93DF9390E0FC01E6560E
:10090000FB4F24918A579B4FFC0184918823C9F0A7
:1009100090E0880F991FFC01E859FB4FA591B49115
:10092000FC01EE58FB4FC591D49161110DC09FB7EA
:10093000F8948C91209582238C9388812823288396
:100940009FBFDF91CF910895623051F49FB7F89423
:100950003C91822F809583238C93E8812E2BEFCFBF
:100960008FB7F894EC912E2B2C938FBFEACF823067
:10097000910538F0880F991F880F991F05970197E7
:10098000F1F708953FB7F89480914B0190914C0195
:10099000A0914D01B0914E0126B5A89B05C02F3FF7
:1009A00019F00196A11DB11D3FBFBA2FA92F982F95
:1009B0008827BC01CD01620F711D811D911D42E090
:1009C000660F771F881F991F4A95D1F708958F9258
:1009D0009F92AF92BF92CF92DF92EF92FF926B0104
:1009E0007C010E94C2044B015C01C114D104E104EA
:1009F000F104B9F00E94C204681979098A099B09B7
:100A0000683E73408105910580F321E0C21AD10848
:100A1000E108F10888EE880E83E0981EA11CB11C45
:100A2000E4CFFF90EF90DF90CF90BF90AF909F907A
:100A30008F9008958230E8F4E82FF0E0EE0FFF1F6A
:100A4000EF5FFE4F71836083813041F080916900D8
:100A50008C7F482B40936900E89A08958091690043
:100A6000837F440F551F440F551F482B4093690047
:100A7000E99A08950895CF93DF93CDB7DEB784E860
:100A800090E0FC0111821082DF91CF910895CF9305
:100A9000DF9300D000D000D0CDB7DEB79A83898332
:100AA0004B835C836D837E838B819C81AD81BE8112
:100AB000E981FA8126E0AC01BD01CF010E940A0361
:100AC00026960FB6F894DEBF0FBECDBFDF91CF9153
:100AD0000895FB0101900020E9F73197AF01461B13
:100AE000570BDC01ED91FC910280F381E02D09941C
:100AF000AF92BF92CF92DF92EF92FF920F931F932C
:100B0000CF93DF93CDB7DEB7A1970FB6F894DEBFD2
:100B10000FBECDBF5C01F42FE52FCB0121153105B0
:100B2000D9F4D5018D919C91DC012D913C91642FDC
:100B3000C501F9010995A1960FB6F894DEBF0FBE65
:100B4000CDBFDF91CF911F910F91FF90EF90DF907C
:100B5000CF90BF90AF90089519A2223008F42AE0F8
:100B60008E010F5D1F4FC22ED12CF12CE12C6F2F67
:100B70007E2FA70196010E94D50AF22FE32FCA010A
:100B80006A308CF4605DD8016E938D01232B242B89
:100B9000252B69F790E080E0109769F2BD01C5014F
:100BA0000E946905C8CF695CEECF9A01AB0170E085
:100BB00060E00C9478050F931F93CF93DF93EC01C3
:100BC0000E94D5058C0165E271E0CE010E946905A5
:100BD000800F911FDF91CF911F910F9108959A017E
:100BE000462F50E070E060E00C94780561157105C7
:100BF00011F00C94690590E080E008951F920F9227
:100C00000FB60F9211242F933F934F935F936F93DF
:100C10007F938F939F93AF93BF93EF93FF938FE453
:100C200091E00E946C03FF91EF91BF91AF919F9172
:100C30008F917F916F915F914F913F912F910F9085
:100C40000FBE0F901F9018951F920F920FB60F9224
:100C500011242F938F939F93EF93FF93E0915F0164
:100C6000F09160018081E0916501F091660182FD63
:100C70001BC09081809168018F5F8F732091690103
:100C8000821741F0E0916801F0E0E15BFE4F958F43
:100C900080936801FF91EF919F918F912F910F9019
:100CA0000FBE0F901F9018958081F4CF1F920F9266
:100CB0000FB60F9211242F933F938F939F93AF936F
:100CC000BF938091470190914801A0914901B09153
:100CD0004A013091460123E0230F2D3758F5019644
:100CE000A11DB11D209346018093470190934801B7
:100CF000A0934901B0934A0180914B0190914C011E
:100D0000A0914D01B0914E010196A11DB11D80939E
:100D10004B0190934C01A0934D01B0934E01BF91B4
:100D2000AF919F918F913F912F910F900FBE0F9098
:100D30001F90189526E8230F0296A11DB11DD2CF52
:100D40001F920F920FB60F9211242F933F934F9340
:100D50005F936F937F938F939F93AF93BF93EF9323
:100D6000FF93E0910301F09104010995FF91EF9148
:100D7000BF91AF919F918F917F916F915F914F91B3
:100D80003F912F910F900FBE0F901F9018951F92BB
:100D90000F920FB60F9211242F933F934F935F93AF
:100DA0006F937F938F939F93AF93BF93EF93FF9333
:100DB000E0910101F09102010995FF91EF91BF913E
:100DC000AF919F918F917F916F915F914F913F91E3
:100DD0002F910F900FBE0F901F901895CF93DF9318
:100DE000CDB7DEB760E082E00E947B0443E050E0D4
:100DF0006BE375E080E00E941A05DF91CF910895C2
:100E0000CF93DF9300D000D0CDB7DEB79C838B8328
:100E10008B819C81CC01A0E0B0E0BC01CD010E949F
:100E2000DA09DC01CB0120E030E040E05FE3BC0107
:100E3000CD010E943909DC01CB01BC01CD010E942A
:100E4000AB09DC01CB019A83898368E271E08FE40E
:100E500091E00E94F60589819A814AE050E0BC0148
:100E60008FE491E00E94DB058B819C81892B41F40A
:100E700088E890E02EE130E0FC013183208307C058
:100E800088E890E029813A81FC01318320830F902A
:100E90000F900F900F90DF91CF910895CF93DF9334
:100EA000CDB7DEB72B970FB6F894DEBF0FBECDBF20
:100EB0008B8780E197E29A83898389819A81CC012B
:100EC000A0E0B0E0BC01CD010E94DA09AB01BC0199
:100ED0008B85882F90E0880F991F880F991F88595C
:100EE0009F4F9C838B838B819C819C01F901859111
:100EF0009591A591B4919F018D839E83AF83B8870F
:100F00003C832B838D819E81AF81B8859A01AB0193
:100F1000BC01CD010E94680ADC01CB01BC01CD01FE
:100F20000E94AB09DC01CB019A87898762E371E0FB
:100F30008FE491E00E94F6054AE050E06B858FE473
:100F400091E00E94EF056AE371E08FE491E00E9476
:100F5000F60589859A854AE050E0BC018FE491E06E
:100F60000E94D50589859A850E9400072B960FB6A9
:100F7000F894DEBF0FBECDBFDF91CF910895CF9320
:100F8000DF9300D000D0CDB7DEB780E091E09C8346
:100F90008B838B819C814AE050E0BC018FE491E01F
:100FA0000E94DB0580EF90E09A83898329813A8152
:100FB0008B819C812817390748F489810E944E074C
:100FC00089819A8101969A838983F0CF83E00E9478
:100FD0002404892B31F0809100018F3F11F081E0D2
:100FE00001C080E0882349F0809100018F5F8093E9
:100FF0000001809100010E944E0784E00E942404B9
:10100000892B31F080910001882311F081E001C02B
:1010100080E0882349F08091000181508093000195
:10102000809100010E944E0761E070E080E090E056
:101030000E94E704CBCF1F920F920FB60F9211249C
:101040008F939F93EF93FF93CF93DF93CDB7DEB74B
:1010500084E890E0FC0111821082DF91CF91FF9132
:10106000EF919F918F910F900FBE0F901F90189549
:101070001F920F920FB60F9211242F933F934F930D
:101080005F936F937F938F939F93AF93BF93EF93F0
:10109000FF93CF93DF93CDB7DEB761E08DE00E9481
:1010A0004D048AE090E00E94B70460E08DE00E9469
:1010B0004D04DF91CF91FF91EF91BF91AF919F913F
:1010C0008F917F916F915F914F913F912F910F90F1
:1010D0000FBE0F901F901895CF93DF93CDB7DEB75B
:1010E000F89480E890E0FC01108281E890E0FC0137
:1010F000208181E890E02A7FFC01208381E890E054
:10110000FC01208181E890E02260FC0120838FE6D1
:1011100090E0FC0120818FE690E02360FC012083B9
:1011200084E890E0FC011182108288E890E0FC01E4
:10113000118210828AE890E0FC011182108278947A
:10114000DF91CF910895CF93DF93CDB7DEB740E81D
:1011500055E260E070E08FE491E00E9447050E9454
:101160006C080E94EE0661E08DE00E947B04DF9136
:10117000CF910895EFE4F1E01382128288EE93E0BC
:10118000A0E0B0E084839583A683B78387E191E0F4
:101190009183808385EC90E09587848784EC90E050
:1011A0009787868780EC90E0918B808B81EC90E034
:1011B000938B828B82EC90E0958B848B86EC90E015
:1011C000978B868B118E128E138E148E08957894C1
:1011D00084B5826084BD84B5816084BD85B582603C
:1011E00085BD85B5816085BD80916E0081608093ED
:1011F0006E00109281008091810082608093810056
:101200008091810081608093810080918000816065
:10121000809380008091B10084608093B1008091C0
:10122000B00081608093B00080917A0084608093E8
:101230007A0080917A00826080937A0080917A00AF
:10124000816080937A0080917A00806880937A0030
:101250001092C1000E94A308C0E0D0E00E94BF0726
:101260002097E1F30E94F6028823C1F30E94000058
:10127000F5CF0E944D090C942E0A0E94270A58F0BF
:101280000E94200A40F029F45F3F29F00C94170ACD
:1012900051110C94620A0C941D0A0E943F0A68F3D3
:1012A0009923B1F3552391F3951B550BBB27AA271F
:1012B00062177307840738F09F5F5F4F220F331F59
:1012C000441FAA1FA9F335D00E2E3AF0E0E832D021
:1012D00091505040E695001CCAF72BD0FE2F29D024
:1012E000660F771F881FBB1F261737074807AB07F6
:1012F000B0E809F0BB0B802DBF01FF2793585F4F6B
:101300003AF09E3F510578F00C94170A0C94620A4B
:101310005F3FE4F3983ED4F3869577956795B7954C
:10132000F7959F5FC9F7880F911D9695879597F957
:101330000895E1E0660F771F881FBB1F62177307D0
:101340008407BA0720F0621B730B840BBA0BEE1FE5
:1013500088F7E09508950E94470A88F09F5798F013
:10136000B92F9927B751B0F0E1F0660F771F881FAA
:10137000991F1AF0BA95C9F714C0B13091F00E94C4
:10138000610AB1E008950C94610A672F782F8827CD
:10139000B85F39F0B93FCCF3869577956795B395EB
:1013A000D9F73EF490958095709561957F4F8F4F5A
:1013B0009F4F0895E89409C097FB3EF4909580955F
:1013C000709561957F4F8F4F9F4F9923A9F0F92F0B
:1013D00096E9BB279395F695879577956795B79589
:1013E000F111F8CFFAF4BB0F11F460FF1BC06F5F6F
:1013F0007F4F8F4F9F4F16C0882311F096E911C081
:10140000772321F09EE8872F762F05C0662371F0A1
:1014100096E8862F70E060E02AF09A95660F771FB5
:10142000881FDAF7880F9695879597F9089597F9A9
:101430009F6780E870E060E008959FEF80EC08957A
:1014400000240A94161617061806090608950024A3
:101450000A9412161306140605060895092E03941D
:10146000000C11F4882352F0BB0F40F4BF2B11F491
:1014700060FF04C06F5F7F4F8F4F9F4F089557FDF0
:101480009058440F551F59F05F3F71F04795880FF2
:1014900097FB991F61F09F3F79F087950895121689
:1014A00013061406551FF2CF4695F1DF08C0161635
:1014B00017061806991FF1CF8695710561050894E6
:1014C0000895E894BB2766277727CB0197F90895FD
:1014D0000E947B0A0C942E0A0E94200A38F00E9477
:1014E000270A20F0952311F00C94170A0C941D0A7A
:1014F00011240C94620A0E943F0A70F3959FC1F375
:10150000950F50E0551F629FF001729FBB27F00DB1
:10151000B11D639FAA27F00DB11DAA1F649F662706
:10152000B00DA11D661F829F2227B00DA11D621F55
:10153000739FB00DA11D621F839FA00D611D221F0F
:10154000749F3327A00D611D231F849F600D211DF3
:10155000822F762F6A2F11249F5750409AF0F1F076
:1015600088234AF0EE0FFF1FBB1F661F771F881FDF
:1015700091505040A9F79E3F510580F00C94170AF6
:101580000C94620A5F3FE4F3983ED4F38695779516
:101590006795B795F795E7959F5FC1F7FE2B880F85
:1015A000911D9695879597F90895A1E21A2EAA1B89
:1015B000BB1BFD010DC0AA1FBB1FEE1FFF1FA21703
:1015C000B307E407F50720F0A21BB30BE40BF50B00
:1015D000661F771F881F991F1A9469F76095709589
:1015E000809590959B01AC01BD01CF010895EE0F50
:0E15F000FF1F0590F491E02D0994F894FFCFB1
:1015FE00FA3A053A050A0B0C0D12130E0F101112C2
:10160E00131415000000008E038C02B902DB03EAEE
:10161E0002C802DC020D0A003B207469636B733A48
:10162E002000696E6465783A20003B2074696D6510
:06163E002075733A200044
:00000001FF
